{
  "_format": "hh-sol-artifact-1",
  "contractName": "AgreementFactory",
  "sourceName": "contracts/AgreementFactory.sol",
  "abi": [
    {
      "inputs": [
        {
          "internalType": "contract IWETH",
          "name": "_weth",
          "type": "address"
        },
        {
          "internalType": "address",
          "name": "_vault",
          "type": "address"
        }
      ],
      "stateMutability": "nonpayable",
      "type": "constructor"
    },
    {
      "anonymous": false,
      "inputs": [
        {
          "indexed": true,
          "internalType": "address",
          "name": "agreement",
          "type": "address"
        },
        {
          "indexed": false,
          "internalType": "string",
          "name": "name",
          "type": "string"
        }
      ],
      "name": "AgreementCreated",
      "type": "event"
    },
    {
      "inputs": [
        {
          "internalType": "string",
          "name": "_name",
          "type": "string"
        },
        {
          "internalType": "address",
          "name": "_feeCollector",
          "type": "address"
        },
        {
          "internalType": "uint256",
          "name": "_depositFee",
          "type": "uint256"
        },
        {
          "internalType": "uint256",
          "name": "_withdrawFee",
          "type": "uint256"
        },
        {
          "internalType": "uint256",
          "name": "_performanceFee",
          "type": "uint256"
        },
        {
          "internalType": "uint256",
          "name": "_maxSwapSlippage",
          "type": "uint256"
        },
        {
          "internalType": "address[]",
          "name": "_managers",
          "type": "address[]"
        },
        {
          "internalType": "address[]",
          "name": "_withdrawers",
          "type": "address[]"
        },
        {
          "internalType": "address[]",
          "name": "_customTokens",
          "type": "address[]"
        },
        {
          "internalType": "enum Agreement.Allowed",
          "name": "_allowedTokens",
          "type": "uint8"
        },
        {
          "internalType": "address[]",
          "name": "_customStrategies",
          "type": "address[]"
        },
        {
          "internalType": "enum Agreement.Allowed",
          "name": "_allowedStrategies",
          "type": "uint8"
        }
      ],
      "name": "create",
      "outputs": [],
      "stateMutability": "nonpayable",
      "type": "function"
    },
    {
      "inputs": [],
      "name": "implementation",
      "outputs": [
        {
          "internalType": "address",
          "name": "",
          "type": "address"
        }
      ],
      "stateMutability": "view",
      "type": "function"
    },
    {
      "inputs": [
        {
          "internalType": "address",
          "name": "",
          "type": "address"
        }
      ],
      "name": "isAgreement",
      "outputs": [
        {
          "internalType": "bool",
          "name": "",
          "type": "bool"
        }
      ],
      "stateMutability": "view",
      "type": "function"
    },
    {
      "inputs": [],
      "name": "vault",
      "outputs": [
        {
          "internalType": "address",
          "name": "",
          "type": "address"
        }
      ],
      "stateMutability": "view",
      "type": "function"
    }
  ],
  "bytecode": "0x60c060405234801561001057600080fd5b5060405161368938038061368983398101604081905261002f9161009b565b6001600160601b0319606082901b16608052604051829061004f9061008e565b61005991906100d4565b604051809103906000f080158015610075573d6000803e3d6000fd5b5060601b6001600160601b03191660a052506101009050565b612bb880610ad183390190565b600080604083850312156100ad578182fd5b82516100b8816100e8565b60208401519092506100c9816100e8565b809150509250929050565b6001600160a01b0391909116815260200190565b6001600160a01b03811681146100fd57600080fd5b50565b60805160601c60a05160601c6109996101386000396000818160b0015261025b015260008181610122015261029401526109996000f3fe608060405234801561001057600080fd5b506004361061004c5760003560e01c806317d20dbf146100515780635c60da1b14610066578063904a889014610084578063fbfa77cf146100a4575b600080fd5b61006461005f36600461042e565b6100ac565b005b61006e610259565b60405161007b9190610603565b60405180910390f35b61009761009236600461040d565b61027d565b60405161007b91906106e3565b61006e610292565b60007f00000000000000000000000000000000000000000000000000000000000000006040516100db906102b6565b6100e59190610603565b604051809103906000f080158015610101573d6000803e3d6000fd5b5090508073ffffffffffffffffffffffffffffffffffffffff1663f976f0607f00000000000000000000000000000000000000000000000000000000000000008e8e8e8e8e8e8e8e8e8e8e6040518d63ffffffff1660e01b81526004016101739c9b9a99989796959493929190610624565b600060405180830381600087803b15801561018d57600080fd5b505af11580156101a1573d6000803e3d6000fd5b5050505060016000808373ffffffffffffffffffffffffffffffffffffffff1673ffffffffffffffffffffffffffffffffffffffff16815260200190815260200160002060006101000a81548160ff0219169083151502179055508073ffffffffffffffffffffffffffffffffffffffff167f5961cdd921554aa969c64fc6d7c3e411d5128da77772035c14f23f58fab04caf8e60405161024291906106ee565b60405180910390a250505050505050505050505050565b7f000000000000000000000000000000000000000000000000000000000000000081565b60006020819052908152604090205460ff1681565b7f000000000000000000000000000000000000000000000000000000000000000081565b6101ab806107b983390190565b803573ffffffffffffffffffffffffffffffffffffffff811681146102e757600080fd5b919050565b600082601f8301126102fc578081fd5b8135602067ffffffffffffffff82111561031857610318610789565b80820261032682820161075f565b838152828101908684018388018501891015610340578687fd5b8693505b8584101561036957610355816102c3565b835260019390930192918401918401610344565b50979650505050505050565b8035600381106102e757600080fd5b600082601f830112610394578081fd5b813567ffffffffffffffff8111156103ae576103ae610789565b6103df60207fffffffffffffffffffffffffffffffffffffffffffffffffffffffffffffffe0601f8401160161075f565b8181528460208386010111156103f3578283fd5b816020850160208301379081016020019190915292915050565b60006020828403121561041e578081fd5b610427826102c3565b9392505050565b6000806000806000806000806000806000806101808d8f031215610450578788fd5b67ffffffffffffffff8d351115610465578788fd5b6104728e8e358f01610384565b9b5061048060208e016102c3565b9a5060408d0135995060608d0135985060808d0135975060a08d0135965067ffffffffffffffff60c08e013511156104b6578586fd5b6104c68e60c08f01358f016102ec565b955067ffffffffffffffff60e08e013511156104e0578485fd5b6104f08e60e08f01358f016102ec565b945067ffffffffffffffff6101008e0135111561050b578384fd5b61051c8e6101008f01358f016102ec565b935061052b6101208e01610375565b925067ffffffffffffffff6101408e01351115610546578081fd5b6105578e6101408f01358f016102ec565b91506105666101608e01610375565b90509295989b509295989b509295989b565b6000815180845260208085019450808401835b838110156105bd57815173ffffffffffffffffffffffffffffffffffffffff168752958201959082019060010161058b565b509495945050505050565b600381106105ff577f4e487b7100000000000000000000000000000000000000000000000000000000600052602160045260246000fd5b9052565b73ffffffffffffffffffffffffffffffffffffffff91909116815260200190565b600073ffffffffffffffffffffffffffffffffffffffff808f168352808e166020840152508b60408301528a60608301528960808301528860a083015261018060c0830152610677610180830189610578565b82810360e08401526106898189610578565b905082810361010084015261069e8188610578565b90506106ae6101208401876105c8565b8281036101408401526106c18186610578565b9150506106d26101608301846105c8565b9d9c50505050505050505050505050565b901515815260200190565b6000602080835283518082850152825b8181101561071a578581018301518582016040015282016106fe565b8181111561072b5783604083870101525b50601f017fffffffffffffffffffffffffffffffffffffffffffffffffffffffffffffffe016929092016040019392505050565b60405181810167ffffffffffffffff8111828210171561078157610781610789565b604052919050565b7f4e487b7100000000000000000000000000000000000000000000000000000000600052604160045260246000fdfe60a060405234801561001057600080fd5b506040516101ab3803806101ab83398101604081905261002f91610044565b60601b6001600160601b031916608052610072565b600060208284031215610055578081fd5b81516001600160a01b038116811461006b578182fd5b9392505050565b60805160601c6101166100956000396000818160590152609d01526101166000f3fe608060405260043610601f5760003560e01c80635c60da1b14603157602b565b36602b5760296057565b005b60296057565b348015603c57600080fd5b506043609b565b604051604e919060bf565b60405180910390f35b7f00000000000000000000000000000000000000000000000000000000000000003660008037600080366000845af43d6000803e8080156096573d6000f35b3d6000fd5b7f000000000000000000000000000000000000000000000000000000000000000081565b73ffffffffffffffffffffffffffffffffffffffff9190911681526020019056fea26469706673582212208fa6cd752acbbda0172a701bf762c71ff48c43590af86e03bdddf2c5a0a4d08164736f6c63430008000033a2646970667358221220c26c736163a139fc27aca41b71ea2e2b2d583b8ad4af62a735e0c5a1f6cebb4a64736f6c6343000800003360a06040523480156200001157600080fd5b5060405162002bb838038062002bb883398101604081905262000034916200004f565b600160005560601b6001600160601b0319166080526200007f565b60006020828403121562000061578081fd5b81516001600160a01b038116811462000078578182fd5b9392505050565b60805160601c612af7620000c1600039600081816106e0015281816108df0152818161092501528181610bb201528181610ca70152610d2f0152612af76000f3fe60806040526004361061021d5760003560e01c80638eab3e0b1161011d578063de0d3e77116100b0578063ee24955d1161007f578063f976f06011610064578063f976f06014610560578063f9eaee0d14610580578063fbfa77cf146105a057610224565b8063ee24955d14610456578063f3ae24151461054057610224565b8063de0d3e77146104eb578063e72b1a1b1461050b578063e941fa781461052b578063ede4137f1461022957610224565b8063bf9b5904116100ec578063bf9b59041461024b578063c415b95c146104d6578063c65e7ec6146102f0578063d2fa04591461024b57610224565b80638eab3e0b146104565780639004e5c5146104765780639b2eb34d14610496578063b7e23788146104b657610224565b806354ecd608116101b0578063803420c41161017f578063868159a511610164578063868159a51461040c57806386a0a42214610421578063877887821461044157610224565b8063803420c4146103cc578063804bf3eb146103ec57610224565b806354ecd60814610354578063553231951461038257806367a527931461039757806367c1def9146103ac57610224565b80633fc8cef3116101ec5780633fc8cef3146102ce578063465950a5146102f057806348de3c09146103105780635284d6d01461033257610224565b806309a58b45146102295780632012b6ea1461024b5780632db3fbdc1461026b5780633aecd0e3146102a157610224565b3661022457005b600080fd5b34801561023557600080fd5b5061024961024436600461210f565b6105b5565b005b34801561025757600080fd5b506102496102663660046120b1565b6105f3565b34801561027757600080fd5b5061028b610286366004611e81565b610629565b604051610298919061246a565b60405180910390f35b3480156102ad57600080fd5b506102c16102bc366004611e81565b61063e565b604051610298919061296b565b3480156102da57600080fd5b506102e36106de565b60405161029891906123e2565b3480156102fc57600080fd5b5061024961030b36600461202c565b610702565b34801561031c57600080fd5b5061032561073a565b6040516102989190612475565b34801561033e57600080fd5b5061034761075d565b60405161029891906124a2565b34801561036057600080fd5b5061037461036f366004611e81565b610766565b604051610298929190612974565b34801561038e57600080fd5b506102c161077a565b3480156103a357600080fd5b506102c1610780565b3480156103b857600080fd5b5061028b6103c7366004611e81565b610786565b3480156103d857600080fd5b506102496103e73660046120b1565b6108ad565b3480156103f857600080fd5b5061028b610407366004611e81565b6109a2565b34801561041857600080fd5b506103476109b7565b34801561042d57600080fd5b5061024961043c366004612165565b6109c0565b34801561044d57600080fd5b506102c1610a12565b34801561046257600080fd5b506102496104713660046121d5565b610a18565b34801561048257600080fd5b5061028b610491366004611e81565b610a48565b3480156104a257600080fd5b506103746104b1366004611e81565b610a5d565b3480156104c257600080fd5b5061028b6104d13660046120b1565b610a71565b3480156104e257600080fd5b506102e3610c52565b3480156104f757600080fd5b50610374610506366004611e81565b610c61565b34801561051757600080fd5b50610249610526366004612165565b610c75565b34801561053757600080fd5b506102c1610dd7565b34801561054c57600080fd5b5061028b61055b366004611e81565b610ddd565b34801561056c57600080fd5b5061024961057b36600461221e565b610df2565b34801561058c57600080fd5b5061028b61059b366004611e81565b610ee8565b3480156105ac57600080fd5b506102e3610fbf565b6001546201000090046001600160a01b031633146105ee5760405162461bcd60e51b81526004016105e5906128a0565b60405180910390fd5b505050565b6001546201000090046001600160a01b031633146106235760405162461bcd60e51b81526004016105e5906128a0565b50505050565b600c6020526000908152604090205460ff1681565b6040517f70a082310000000000000000000000000000000000000000000000000000000081526000906001600160a01b038316906370a08231906106869030906004016123e2565b60206040518083038186803b15801561069e57600080fd5b505afa1580156106b2573d6000803e3d6000fd5b505050506040513d601f19601f820116820180604052508101906106d6919061236b565b90505b919050565b7f000000000000000000000000000000000000000000000000000000000000000081565b6001546201000090046001600160a01b031633146107325760405162461bcd60e51b81526004016105e5906128a0565b505050505050565b7e0d00000000000000000000000000000000000000000000000000000000000090565b60095460ff1681565b6004546002546001600160a01b0316915091565b60065481565b60035481565b60006002600b5460ff1660028111156107af57634e487b7160e01b600052602160045260246000fd5b14806107d357506001600160a01b0382166000908152600c602052604090205460ff165b156107e0575060016106d9565b6001600b5460ff16600281111561080757634e487b7160e01b600052602160045260246000fd5b1480156106d657506001546040517f999ba27c000000000000000000000000000000000000000000000000000000008152620100009091046001600160a01b03169063999ba27c9061085d9085906004016123e2565b60206040518083038186803b15801561087557600080fd5b505afa158015610889573d6000803e3d6000fd5b505050506040513d601f19601f820116820180604052508101906106d6919061234f565b6001546201000090046001600160a01b031633146108dd5760405162461bcd60e51b81526004016105e5906128a0565b7f00000000000000000000000000000000000000000000000000000000000000006001600160a01b0316836001600160a01b031614801561091e5750600047115b15610998577f00000000000000000000000000000000000000000000000000000000000000006001600160a01b031663d0e30db0476040518263ffffffff1660e01b81526004016000604051808303818588803b15801561097e57600080fd5b505af1158015610992573d6000803e3d6000fd5b50505050505b6106238383610fd4565b600a6020526000908152604090205460ff1681565b600b5460ff1681565b6001546201000090046001600160a01b031633146109f05760405162461bcd60e51b81526004016105e5906128a0565b610a0b84610a0685610a018861063e565b610ffe565b610fd4565b5050505050565b60055481565b6001546201000090046001600160a01b03163314610a0b5760405162461bcd60e51b81526004016105e5906128a0565b60086020526000908152604090205460ff1681565b6005546002546001600160a01b0316915091565b6001600160a01b03841660009081526007602052604081205460ff16610a9957506000610c4a565b6001546001600160a01b03858116620100009092041614610abc57506000610c4a565b610ac583611016565b15610afe576000610ad58361106b565b9050610ae48160200151610ee8565b8015610af65750600654816060015111155b915050610c4a565b610b07836110cc565b15610b26576000610b17836110f8565b9050610af68160000151610786565b610b2f83611146565b15610b70576000610b3f83611172565b905080604001511580610af6575050506001600160a01b03841660009081526008602052604090205460ff16610c4a565b610b79836111cd565b15610c3e576000610b89836111f9565b6040808201516001600160a01b031660009081526008602052205490915060ff1680610af657507f00000000000000000000000000000000000000000000000000000000000000006001600160a01b031681600001516001600160a01b0316148015610c01575060408101516001600160a01b031630145b8015610af6575060086000610c198360600151611254565b6001600160a01b0316815260208101919091526040016000205460ff16915050610c4a565b610c4783611273565b90505b949350505050565b6002546001600160a01b031681565b6003546002546001600160a01b0316915091565b6001546201000090046001600160a01b03163314610ca55760405162461bcd60e51b81526004016105e5906128a0565b7f00000000000000000000000000000000000000000000000000000000000000006001600160a01b0316846001600160a01b0316148015610ce65750600083115b8015610cfa57506001600160a01b03821630145b15610a0b576040517f2e1a7d4d0000000000000000000000000000000000000000000000000000000081526001600160a01b037f00000000000000000000000000000000000000000000000000000000000000001690632e1a7d4d90610d6490869060040161296b565b600060405180830381600087803b158015610d7e57600080fd5b505af1158015610d92573d6000803e3d6000fd5b50505050610d9f81611254565b6001600160a01b03166108fc849081150290604051600060405180830381858888f19350505050158015610732573d6000803e3d6000fd5b60045481565b60076020526000908152604090205460ff1681565b600154610100900460ff1680610e0b575060015460ff16155b610e275760405162461bcd60e51b81526004016105e5906125f7565b600154610100900460ff16158015610e6e576001805460ff197fffffffffffffffffffffffffffffffffffffffffffffffffffffffffffff00ff9091166101001716811790555b610e778d61129f565b610e848c8c8c8c8c61133c565b610e8d8761150f565b610e968661163b565b610ea0858561175c565b610eaa83836118b6565b8015610ed957600180547fffffffffffffffffffffffffffffffffffffffffffffffffffffffffffff00ff1690555b50505050505050505050505050565b6000600260095460ff166002811115610f1157634e487b7160e01b600052602160045260246000fd5b1480610f3557506001600160a01b0382166000908152600a602052604090205460ff165b15610f42575060016106d9565b600160095460ff166002811115610f6957634e487b7160e01b600052602160045260246000fd5b1480156106d657506001546040517fb5af090f000000000000000000000000000000000000000000000000000000008152620100009091046001600160a01b03169063b5af090f9061085d9085906004016123e2565b6001546201000090046001600160a01b031681565b8015610ffa57600154610ffa906001600160a01b038481169162010000900416836119df565b5050565b600081831061100d578161100f565b825b9392505050565b60007fa5d4096b0000000000000000000000000000000000000000000000000000000061104283611b3d565b7fffffffff00000000000000000000000000000000000000000000000000000000161492915050565b611073611cb7565b60008060008060008680602001905181019061108f9190611eb9565b6040805160a0810182526001600160a01b039687168152959094166020860152928401919091526060830152608082015295505050505050919050565b60007f36ba9c500000000000000000000000000000000000000000000000000000000061104283611b3d565b611100611cf8565b6000806000848060200190518101906111199190611fd4565b604080516060810182526001600160a01b0390941684526020840192909252908201529350505050919050565b60007fc18444650000000000000000000000000000000000000000000000000000000061104283611b3d565b61117a611d22565b600080600080858060200190518101906111949190611f9c565b604080516080810182526001600160a01b0390951685526020850193909352901515918301919091526060820152945050505050919050565b60007f74dbaf560000000000000000000000000000000000000000000000000000000061104283611b3d565b611201611d22565b6000806000808580602001905181019061121b9190611f30565b604080516080810182526001600160a01b0395861681526020810194909452919093169082015260608101919091529695505050505050565b600060148251106106d957818060200190518101906106d69190611e9d565b60007fe9c670ad0000000000000000000000000000000000000000000000000000000061104283611b3d565b6001546201000090046001600160a01b0316156112ce5760405162461bcd60e51b81526004016105e590612552565b6112e0816001600160a01b0316611b40565b6112fc5760405162461bcd60e51b81526004016105e59061268b565b600180546001600160a01b0390921662010000027fffffffffffffffffffff0000000000000000000000000000000000000000ffff909216919091179055565b6001600160a01b0385166113625760405162461bcd60e51b81526004016105e590612934565b600280547fffffffffffffffffffffffff0000000000000000000000000000000000000000166001600160a01b038716179055670de0b6b3a76400008411156113bd5760405162461bcd60e51b81526004016105e5906126c2565b6003849055670de0b6b3a76400008311156113ea5760405162461bcd60e51b81526004016105e590612654565b6004839055670de0b6b3a76400008211156114175760405162461bcd60e51b81526004016105e5906125c0565b81600581905550600160029054906101000a90046001600160a01b03166001600160a01b0316638c04166f6040518163ffffffff1660e01b815260040160206040518083038186803b15801561146c57600080fd5b505afa158015611480573d6000803e3d6000fd5b505050506040513d601f19601f820116820180604052508101906114a4919061236b565b8111156114c35760405162461bcd60e51b81526004016105e5906126f9565b60068190556040517f4e2ee040d1f4b71934770831bf83f37583bf800aad842b7e0d21919d40b8f245906115009087908790879087908790612429565b60405180910390a15050505050565b60008151116115305760405162461bcd60e51b81526004016105e59061280c565b60005b81518110156116005760006001600160a01b031682828151811061156757634e487b7160e01b600052603260045260246000fd5b60200260200101516001600160a01b031614156115965760405162461bcd60e51b81526004016105e590612589565b6001600760008484815181106115bc57634e487b7160e01b600052603260045260246000fd5b6020908102919091018101516001600160a01b03168252810191909152604001600020805460ff1916911515919091179055806115f881612a40565b915050611533565b507f8a9316c3ec4b4cd32c9306bb8fa56cf26daa655dba4dd49e59d9116748a9058e816040516116309190612457565b60405180910390a150565b600081511161165c5760405162461bcd60e51b81526004016105e590612730565b60005b815181101561172c5760006001600160a01b031682828151811061169357634e487b7160e01b600052603260045260246000fd5b60200260200101516001600160a01b031614156116c25760405162461bcd60e51b81526004016105e5906127d5565b6001600860008484815181106116e857634e487b7160e01b600052603260045260246000fd5b6020908102919091018101516001600160a01b03168252810191909152604001600020805460ff19169115159190911790558061172481612a40565b91505061165f565b507f67f1a5848f98c34983dfec12a155941f00783eeb86a1968c5e66e381a9598d34816040516116309190612457565b6009805482919060ff1916600183600281111561178957634e487b7160e01b600052602160045260246000fd5b021790555060005b8251811015611859576117d38382815181106117bd57634e487b7160e01b600052603260045260246000fd5b60200260200101516001600160a01b0316611b40565b6117ef5760405162461bcd60e51b81526004016105e59061251b565b6001600a600085848151811061181557634e487b7160e01b600052603260045260246000fd5b6020908102919091018101516001600160a01b03168252810191909152604001600020805460ff19169115159190911790558061185181612a40565b915050611791565b507f47387d31863d08026a5e108bc8215a22c4bce5a0aef387e1beb97acc5d1072ab81600281111561189b57634e487b7160e01b600052602160045260246000fd5b836040516118aa92919061298b565b60405180910390a15050565b600b805482919060ff191660018360028111156118e357634e487b7160e01b600052602160045260246000fd5b021790555060005b825181101561199d576119178382815181106117bd57634e487b7160e01b600052603260045260246000fd5b6119335760405162461bcd60e51b81526004016105e590612767565b6001600c600085848151811061195957634e487b7160e01b600052603260045260246000fd5b6020908102919091018101516001600160a01b03168252810191909152604001600020805460ff19169115159190911790558061199581612a40565b9150506118eb565b507f4011527eb3217f71d004908e1ec0177af73ae054da19afa8de1f2c36c4ee715781600281111561189b57634e487b7160e01b600052602160045260246000fd5b801580611a8057506040517fdd62ed3e0000000000000000000000000000000000000000000000000000000081526001600160a01b0384169063dd62ed3e90611a2e90309086906004016123f6565b60206040518083038186803b158015611a4657600080fd5b505afa158015611a5a573d6000803e3d6000fd5b505050506040513d601f19601f82011682018060405250810190611a7e919061236b565b155b611a9c5760405162461bcd60e51b81526004016105e5906128d7565b6105ee8363095ea7b360e01b8484604051602401611abb929190612410565b604080517fffffffffffffffffffffffffffffffffffffffffffffffffffffffffffffffe08184030181529190526020810180517bffffffffffffffffffffffffffffffffffffffffffffffffffffffff167fffffffff0000000000000000000000000000000000000000000000000000000090931692909217909152611b46565b90565b3b151590565b6000611b9b826040518060400160405280602081526020017f5361666545524332303a206c6f772d6c6576656c2063616c6c206661696c6564815250856001600160a01b0316611bd59092919063ffffffff16565b8051909150156105ee5780806020019051810190611bb9919061234f565b6105ee5760405162461bcd60e51b81526004016105e590612843565b6060610c4a848460008585611be985611b40565b611c055760405162461bcd60e51b81526004016105e59061279e565b600080866001600160a01b03168587604051611c2191906123c6565b60006040518083038185875af1925050503d8060008114611c5e576040519150601f19603f3d011682016040523d82523d6000602084013e611c63565b606091505b5091509150611c73828286611c7e565b979650505050505050565b60608315611c8d57508161100f565b825115611c9d5782518084602001fd5b8160405162461bcd60e51b81526004016105e591906124ca565b6040518060a0016040528060006001600160a01b0316815260200160006001600160a01b031681526020016000815260200160008152602001606081525090565b604051806060016040528060006001600160a01b0316815260200160008152602001606081525090565b604080516080810182526000808252602082018190529181019190915260608082015290565b80356106d981612a9b565b600082601f830112611d63578081fd5b8135602067ffffffffffffffff821115611d7f57611d7f612a85565b808202611d8d8282016129a4565b838152828101908684018388018501891015611da7578687fd5b8693505b85841015611dd2578035611dbe81612a9b565b835260019390930192918401918401611dab565b50979650505050505050565b600082601f830112611dee578081fd5b8135611e01611dfc826129ce565b6129a4565b818152846020838601011115611e15578283fd5b816020850160208301379081016020019190915292915050565b600082601f830112611e3f578081fd5b8151611e4d611dfc826129ce565b818152846020838601011115611e61578283fd5b610c4a826020830160208701612a14565b8035600381106106d957600080fd5b600060208284031215611e92578081fd5b813561100f81612a9b565b600060208284031215611eae578081fd5b815161100f81612a9b565b600080600080600060a08688031215611ed0578081fd5b8551611edb81612a9b565b6020870151909550611eec81612a9b565b809450506040860151925060608601519150608086015167ffffffffffffffff811115611f17578182fd5b611f2388828901611e2f565b9150509295509295909350565b60008060008060808587031215611f45578384fd5b8451611f5081612a9b565b602086015160408701519195509350611f6881612a9b565b606086015190925067ffffffffffffffff811115611f84578182fd5b611f9087828801611e2f565b91505092959194509250565b60008060008060808587031215611fb1578384fd5b8451611fbc81612a9b565b602086015160408701519195509350611f6881612ab3565b600080600060608486031215611fe8578283fd5b8351611ff381612a9b565b60208501516040860151919450925067ffffffffffffffff811115612016578182fd5b61202286828701611e2f565b9150509250925092565b60008060008060008060c08789031215612044578081fd5b863561204f81612a9b565b9550602087013561205f81612a9b565b9450604087013561206f81612a9b565b9350606087013592506080870135915060a087013567ffffffffffffffff811115612098578182fd5b6120a489828a01611dde565b9150509295509295509295565b600080600080608085870312156120c6578182fd5b84356120d181612a9b565b935060208501356120e181612a9b565b925060408501359150606085013567ffffffffffffffff811115612103578182fd5b611f9087828801611dde565b600080600060608486031215612123578081fd5b833561212e81612a9b565b9250602084013561213e81612a9b565b9150604084013567ffffffffffffffff811115612159578182fd5b61202286828701611dde565b600080600080600060a0868803121561217c578283fd5b853561218781612a9b565b9450602086013561219781612a9b565b93506040860135925060608601356121ae81612a9b565b9150608086013567ffffffffffffffff8111156121c9578182fd5b611f2388828901611dde565b600080600080600060a086880312156121ec578283fd5b85356121f781612a9b565b9450602086013561220781612a9b565b93506040860135925060608601356121ae81612ab3565b6000806000806000806000806000806000806101808d8f03121561224057898afd5b6122498d611d48565b9b5061225760208e01611d48565b9a5060408d0135995060608d0135985060808d0135975060a08d0135965067ffffffffffffffff60c08e0135111561228d578586fd5b61229d8e60c08f01358f01611d53565b955067ffffffffffffffff60e08e013511156122b7578485fd5b6122c78e60e08f01358f01611d53565b945067ffffffffffffffff6101008e013511156122e2578384fd5b6122f38e6101008f01358f01611d53565b93506123026101208e01611e72565b925067ffffffffffffffff6101408e0135111561231d578081fd5b61232e8e6101408f01358f01611d53565b915061233d6101608e01611e72565b90509295989b509295989b509295989b565b600060208284031215612360578081fd5b815161100f81612ab3565b60006020828403121561237c578081fd5b5051919050565b6000815180845260208085019450808401835b838110156123bb5781516001600160a01b031687529582019590820190600101612396565b509495945050505050565b600082516123d8818460208701612a14565b9190910192915050565b6001600160a01b0391909116815260200190565b6001600160a01b0392831681529116602082015260400190565b6001600160a01b03929092168252602082015260400190565b6001600160a01b03959095168552602085019390935260408401919091526060830152608082015260a00190565b60006020825261100f6020830184612383565b901515815260200190565b7fffff00000000000000000000000000000000000000000000000000000000000091909116815260200190565b60208101600383106124c457634e487b7160e01b600052602160045260246000fd5b91905290565b60006020825282518060208401526124e9816040850160208701612a14565b601f017fffffffffffffffffffffffffffffffffffffffffffffffffffffffffffffffe0169190910160400192915050565b60208082526019908201527f435553544f4d5f544f4b454e5f4e4f545f434f4e545241435400000000000000604082015260600190565b6020808252600c908201527f414c52454144595f494e49540000000000000000000000000000000000000000604082015260600190565b60208082526014908201527f4d414e414745525f5a45524f5f41444452455353000000000000000000000000604082015260600190565b60208082526018908201527f504552464f524d414e43455f4645455f544f4f5f484947480000000000000000604082015260600190565b6020808252602e908201527f496e697469616c697a61626c653a20636f6e747261637420697320616c72656160408201527f647920696e697469616c697a6564000000000000000000000000000000000000606082015260800190565b60208082526015908201527f57495448445241575f4645455f544f4f5f484947480000000000000000000000604082015260600190565b60208082526012908201527f5641554c545f4e4f545f434f4e54524143540000000000000000000000000000604082015260600190565b60208082526014908201527f4445504f5349545f4645455f544f4f5f48494748000000000000000000000000604082015260600190565b6020808252601a908201527f4d41585f535741505f534c4950504147455f544f4f5f48494748000000000000604082015260600190565b60208082526013908201527f4d495353494e475f574954484452415745525300000000000000000000000000604082015260600190565b6020808252601c908201527f435553544f4d5f53545241544547595f4e4f545f434f4e545241435400000000604082015260600190565b6020808252601d908201527f416464726573733a2063616c6c20746f206e6f6e2d636f6e7472616374000000604082015260600190565b60208082526017908201527f574954484452415745525f5a45524f5f41444452455353000000000000000000604082015260600190565b60208082526010908201527f4d495353494e475f4d414e414745525300000000000000000000000000000000604082015260600190565b6020808252602a908201527f5361666545524332303a204552433230206f7065726174696f6e20646964206e60408201527f6f74207375636365656400000000000000000000000000000000000000000000606082015260800190565b60208082526010908201527f53454e4445525f4e4f545f5641554c5400000000000000000000000000000000604082015260600190565b60208082526036908201527f5361666545524332303a20617070726f76652066726f6d206e6f6e2d7a65726f60408201527f20746f206e6f6e2d7a65726f20616c6c6f77616e636500000000000000000000606082015260800190565b6020808252601a908201527f4645455f434f4c4c4543544f525f5a45524f5f41444452455353000000000000604082015260600190565b90815260200190565b9182526001600160a01b0316602082015260400190565b600083825260406020830152610c4a6040830184612383565b60405181810167ffffffffffffffff811182821017156129c6576129c6612a85565b604052919050565b600067ffffffffffffffff8211156129e8576129e8612a85565b50601f017fffffffffffffffffffffffffffffffffffffffffffffffffffffffffffffffe01660200190565b60005b83811015612a2f578181015183820152602001612a17565b838111156106235750506000910152565b60007fffffffffffffffffffffffffffffffffffffffffffffffffffffffffffffffff821415612a7e57634e487b7160e01b81526011600452602481fd5b5060010190565b634e487b7160e01b600052604160045260246000fd5b6001600160a01b0381168114612ab057600080fd5b50565b8015158114612ab057600080fdfea2646970667358221220b35c2965bfb46a53803df5c7ac3e000c7bd314c902deefe23b70174698e1842a64736f6c63430008000033",
  "linkReferences": {},
  "deployedLinkReferences": {}
}